:020000040800F2
:100000009006002029020008650200086702000827
:10001000690200086B0200086D0200080000000081
:100020000000000000000000000000006F02000857
:100030007102000800000000730200087502000849
:1000400077020008770200087702000877020008AC
:10005000770200087702000877020008770200089C
:10006000770200087702000877020008770200088C
:10007000770200087702000877020008770200087C
:10008000770200087702000877020008770200086C
:10009000770200087702000877020008770200085C
:1000A000770200087702000877020008770200084C
:1000B000770200087702000877020008770200083C
:1000C000770200087702000877020008770200082C
:1000D000770200087702000877020008770200081C
:1000E000770200087702000877020008770200080C
:1000F00077020008770200087702000877020008FC
:1001000077020008770200087702000877020008EB
:1001100077020008770200087702000877020008DB
:1001200077020008770200087702000877020008CB
:1001300077020008770200087702000877020008BB
:1001400077020008770200087702000877020008AB
:10015000770200087702000877020008770200089B
:10016000770200087702000877020008770200088B
:1001700077020008770200087702000800000000FC
:10018000770200087702000800F002F800F03CF85F
:100190000AA090E8000C82448344AAF10107DA45E2
:1001A00001D100F031F8AFF2090EBAE80F0013F0F8
:1001B000010F18BFFB1A43F00103184700070000A6
:1001C00020070000103A24BF78C878C1FAD8520737
:1001D00024BF30C830C144BF04680C6070470000C1
:1001E0000023002400250026103A28BF78C1FBD840
:1001F000520728BF30C148BF0B6070471FB500F0E1
:1002000057FB1FBD10B510BD00F072F81146FFF787
:10021000F5FF00F007FB00F090F803B4FFF7F2FFE2
:1002200003BC00F097F8000016481749174B994295
:100230003CBF50F8042B41F8042BF8D314494FF07D
:1002400000028B4238BF43F8042BFAD3DFF8440096
:10025000016841F470010160BFF34F8FBFF36F8FEE
:100260000D480047FEE7FEE7FEE7FEE7FEE7FEE794
:10027000FEE7FEE7FEE7FEE708480949094A0A4BA0
:1002800070470000DC080008000000202C0000205F
:100290009006002088ED00E0890100089000002011
:1002A00090060020900200209002002010B5431C10
:1002B00002E010F8011B71B18107FAD14FF0013251
:1002C00002C88C1A8C4314EAC211F9D0C01A0A066B
:1002D00003D0C01E10BDC01A10BD0A0401D0801E7C
:1002E00010BD0902FCD0401E10BD7047704770471A
:1002F000754600F02BF8AE4605006946534620F0DF
:100300000700854618B020B5FFF7B6FFBDE82040CE
:100310004FF000064FF000074FF000084FF0000BC1
:1003200021F00701AC46ACE8C009ACE8C009ACE874
:10033000C009ACE8C0098D46704710B50446AFF35C
:1003400000802046BDE81040FFF767BF00487047B7
:100350002C00002001491820ABBEFEE72600020059
:100360007047000070B5002400251B2219A1204809
:1003700000F0EEF900F062F81E4800681E490860BF
:1003800023E01C482438006800F00200B0B119488E
:10039000006885B218480068281A1849884206D8AB
:1003A00001241A2216A1124800F0D2F90FE01E22F1
:1003B0001AA10F4800F0CCF900F046FA0D48343885
:1003C000006800200B4934390860002CD9D000BFE8
:1003D00070BD0000506F776572204F6E2053656CC2
:1003E0006620546573742E2E2E200D0A0000000026
:1003F00000440040340C004028000020A08601008A
:10040000506F776572204F6E2053656C662054657F
:100410007374204F4B200D0A00000000506F776569
:1004200072204F6E2053656C6620546573742046AD
:1004300061696C6564200D0A0000000003480068D3
:1004400040F001000149086070470000000C0040C6
:100450005E49096821F007015C4A1160114609688C
:1004600041F0020111605A49096841F48071584A0B
:10047000116000BF5649096801F480610029F9D074
:1004800010205349496821F0F851514A51601146F2
:10049000496841EA006151601146096821F08071A4
:1004A000116000BF4A49096801F00071B1F1007F95
:1004B000F8D04749C96821F00301454AD160114687
:1004C000C96841F00201D1601146C96821F4FE41BA
:1004D00041F4A051D1601146C96821F0700141F08A
:1004E0001001D1601146C96821F0C061D160114688
:1004F000C96841F08071D1601146096841F080718E
:10050000116000BF3249096801F000710029F9D07B
:100510002F49896821F003012D4A916011468968AD
:1005200041F00301916000BF2949896801F00C0185
:100530000C29F9D12649896821F0F001244A9160FB
:100540001146896821F4E06191601146896821F4BF
:10055000605191601146096821F08061116000BF0F
:100560001B49096801F08061B1F1806FF8D018492A
:10057000096921F4FE41164A11611146096941F4E5
:10058000C05111611146096941F4003111611146F0
:10059000096941F4803111611146096841F08061B7
:1005A000116000BF0A49096801F080610029F9D093
:1005B00007498831096821F44001054AC2F88810CA
:1005C0001146096E41F40011116670470020024087
:1005D000001002401A48C06C40F008001849C86476
:1005E0001848006820F470501649086008460068F2
:1005F00040F42050086013482030006840F0EE605E
:100600001049203108600F480830006840F47050ED
:100610000C4908310860081D006820F47050091D5D
:1006200008600846006840F4A05008600548001DB6
:10063000006820F060000349091D08607047000051
:1006400000100240000C004800B50D48806D40F4D9
:1006500000300B4988650A488830006820F00C009B
:10066000C1F888000846D0F8880040F00400C1F8BE
:100670008800FFF7AFFF034800F006F800BD000058
:100680000010024000440040016821F001010160B7
:10069000016821F010210160016821F4004101602E
:1006A000416821F44051416042F28D01C16001680E
:1006B00041F00C0101601E4988421BD1016841F0E4
:1006C00020010160016821F040010160016821F012
:1006D00010010160016821F080010160016821F4CE
:1006E00080710160016821F040010160016821F022
:1006F000010101600F49884209D1016A41F04001BE
:1007000001620D49096841F0C0010B4A116001689E
:1007100041F00101016000BFC16901F4001100292D
:10072000FAD000BFC16901F480010029FAD07047F6
:10073000004C00400044004008380140014600BF22
:10074000C86900F020000028FAD0888CC0B2704739
:1007500010B50B46002108E000BFC46904F0800416
:10076000002CFAD05C5C0485491C9142F4D300BF94
:10077000C46904F04004002CFAD0C46924F0400499
:10078000C46110BD0C48C06C40F001000A49C86447
:100790004FF09040006820F003004FF09041086057
:1007A0000846006840F0020008600846006A40F011
:1007B0000200086270470000001002401748806D78
:1007C00040F0080015498865154800681449096813
:1007D00088431349086046200860114814380068AF
:1007E00040F001000E49143908600D4808380068CF
:1007F00000200B490839086009481038006840F0AB
:10080000010007491039086005480838006840F0C1
:1008100001000349083908607047000000100240D9
:10082000280C004070B540F2B63404F16405FFF7BF
:100830000FFEFFF7A7FFFFF7C1FFFFF705FFFFF769
:1008400091FD002070BD000070B51048FFF72EFD2F
:1008500005462A460D490E48FFF77AFF0C48FFF778
:100860006DFF04464E2C01D06E2C05D1102209A13B
:100870000748FFF76DFF07E0592C01D0792C03D111
:10088000094800680949086070BD000000000020A8
:1008900000440040506F776572696E67204F66664E
:1008A0000D0A0D0A00000000340C00402800002052
:1008B0004FF04070E1EE100A70470000DC080008BD
:1008C000000000202C000000C401000808090008F6
:1008D0002C00002064060000E0010008547279201A
:1008E000506F737420416761696E3F202859203D25
:1008F000204F6E2C204E203D206F6666293A0D0A4F
:080900000D0A000000000000D8
:040000050800018965
:00000001FF
